{
  "contractName": "Indexer",
  "abi": [
    {
      "inputs": [
        {
          "internalType": "address",
          "name": "_stakingToken",
          "type": "address"
        }
      ],
      "payable": false,
      "stateMutability": "nonpayable",
      "type": "constructor"
    },
    {
      "anonymous": false,
      "inputs": [
        {
          "indexed": false,
          "internalType": "address",
          "name": "token",
          "type": "address"
        }
      ],
      "name": "AddToBlacklist",
      "type": "event"
    },
    {
      "anonymous": false,
      "inputs": [
        {
          "indexed": false,
          "internalType": "address",
          "name": "signerToken",
          "type": "address"
        },
        {
          "indexed": false,
          "internalType": "address",
          "name": "senderToken",
          "type": "address"
        }
      ],
      "name": "CreateIndex",
      "type": "event"
    },
    {
      "anonymous": false,
      "inputs": [
        {
          "indexed": true,
          "internalType": "address",
          "name": "previousOwner",
          "type": "address"
        },
        {
          "indexed": true,
          "internalType": "address",
          "name": "newOwner",
          "type": "address"
        }
      ],
      "name": "OwnershipTransferred",
      "type": "event"
    },
    {
      "anonymous": false,
      "inputs": [
        {
          "indexed": false,
          "internalType": "address",
          "name": "token",
          "type": "address"
        }
      ],
      "name": "RemoveFromBlacklist",
      "type": "event"
    },
    {
      "anonymous": false,
      "inputs": [
        {
          "indexed": false,
          "internalType": "address",
          "name": "wallet",
          "type": "address"
        },
        {
          "indexed": false,
          "internalType": "address",
          "name": "signerToken",
          "type": "address"
        },
        {
          "indexed": false,
          "internalType": "address",
          "name": "senderToken",
          "type": "address"
        },
        {
          "indexed": false,
          "internalType": "uint256",
          "name": "amount",
          "type": "uint256"
        }
      ],
      "name": "Stake",
      "type": "event"
    },
    {
      "anonymous": false,
      "inputs": [
        {
          "indexed": false,
          "internalType": "address",
          "name": "wallet",
          "type": "address"
        },
        {
          "indexed": false,
          "internalType": "address",
          "name": "signerToken",
          "type": "address"
        },
        {
          "indexed": false,
          "internalType": "address",
          "name": "senderToken",
          "type": "address"
        },
        {
          "indexed": false,
          "internalType": "uint256",
          "name": "amount",
          "type": "uint256"
        }
      ],
      "name": "Unstake",
      "type": "event"
    },
    {
      "constant": true,
      "inputs": [
        {
          "internalType": "address",
          "name": "",
          "type": "address"
        }
      ],
      "name": "blacklist",
      "outputs": [
        {
          "internalType": "bool",
          "name": "",
          "type": "bool"
        }
      ],
      "payable": false,
      "stateMutability": "view",
      "type": "function"
    },
    {
      "constant": true,
      "inputs": [],
      "name": "contractPaused",
      "outputs": [
        {
          "internalType": "bool",
          "name": "",
          "type": "bool"
        }
      ],
      "payable": false,
      "stateMutability": "view",
      "type": "function"
    },
    {
      "constant": true,
      "inputs": [
        {
          "internalType": "address",
          "name": "",
          "type": "address"
        },
        {
          "internalType": "address",
          "name": "",
          "type": "address"
        }
      ],
      "name": "indexes",
      "outputs": [
        {
          "internalType": "contract Index",
          "name": "",
          "type": "address"
        }
      ],
      "payable": false,
      "stateMutability": "view",
      "type": "function"
    },
    {
      "constant": true,
      "inputs": [],
      "name": "isOwner",
      "outputs": [
        {
          "internalType": "bool",
          "name": "",
          "type": "bool"
        }
      ],
      "payable": false,
      "stateMutability": "view",
      "type": "function"
    },
    {
      "constant": true,
      "inputs": [],
      "name": "locatorWhitelist",
      "outputs": [
        {
          "internalType": "address",
          "name": "",
          "type": "address"
        }
      ],
      "payable": false,
      "stateMutability": "view",
      "type": "function"
    },
    {
      "constant": true,
      "inputs": [],
      "name": "owner",
      "outputs": [
        {
          "internalType": "address",
          "name": "",
          "type": "address"
        }
      ],
      "payable": false,
      "stateMutability": "view",
      "type": "function"
    },
    {
      "constant": false,
      "inputs": [],
      "name": "renounceOwnership",
      "outputs": [],
      "payable": false,
      "stateMutability": "nonpayable",
      "type": "function"
    },
    {
      "constant": true,
      "inputs": [],
      "name": "stakingToken",
      "outputs": [
        {
          "internalType": "contract IERC20",
          "name": "",
          "type": "address"
        }
      ],
      "payable": false,
      "stateMutability": "view",
      "type": "function"
    },
    {
      "constant": false,
      "inputs": [
        {
          "internalType": "address",
          "name": "newOwner",
          "type": "address"
        }
      ],
      "name": "transferOwnership",
      "outputs": [],
      "payable": false,
      "stateMutability": "nonpayable",
      "type": "function"
    },
    {
      "constant": false,
      "inputs": [
        {
          "internalType": "address",
          "name": "_locatorWhitelist",
          "type": "address"
        }
      ],
      "name": "setLocatorWhitelist",
      "outputs": [],
      "payable": false,
      "stateMutability": "nonpayable",
      "type": "function"
    },
    {
      "constant": false,
      "inputs": [
        {
          "internalType": "address",
          "name": "_signerToken",
          "type": "address"
        },
        {
          "internalType": "address",
          "name": "_senderToken",
          "type": "address"
        }
      ],
      "name": "createIndex",
      "outputs": [
        {
          "internalType": "address",
          "name": "",
          "type": "address"
        }
      ],
      "payable": false,
      "stateMutability": "nonpayable",
      "type": "function"
    },
    {
      "constant": false,
      "inputs": [
        {
          "internalType": "address",
          "name": "_token",
          "type": "address"
        }
      ],
      "name": "addToBlacklist",
      "outputs": [],
      "payable": false,
      "stateMutability": "nonpayable",
      "type": "function"
    },
    {
      "constant": false,
      "inputs": [
        {
          "internalType": "address",
          "name": "_token",
          "type": "address"
        }
      ],
      "name": "removeFromBlacklist",
      "outputs": [],
      "payable": false,
      "stateMutability": "nonpayable",
      "type": "function"
    },
    {
      "constant": false,
      "inputs": [
        {
          "internalType": "address",
          "name": "_signerToken",
          "type": "address"
        },
        {
          "internalType": "address",
          "name": "_senderToken",
          "type": "address"
        },
        {
          "internalType": "uint256",
          "name": "_amount",
          "type": "uint256"
        },
        {
          "internalType": "bytes32",
          "name": "_locator",
          "type": "bytes32"
        }
      ],
      "name": "setIntent",
      "outputs": [],
      "payable": false,
      "stateMutability": "nonpayable",
      "type": "function"
    },
    {
      "constant": false,
      "inputs": [
        {
          "internalType": "address",
          "name": "_signerToken",
          "type": "address"
        },
        {
          "internalType": "address",
          "name": "_senderToken",
          "type": "address"
        }
      ],
      "name": "unsetIntent",
      "outputs": [],
      "payable": false,
      "stateMutability": "nonpayable",
      "type": "function"
    },
    {
      "constant": false,
      "inputs": [
        {
          "internalType": "address",
          "name": "_user",
          "type": "address"
        },
        {
          "internalType": "address",
          "name": "_signerToken",
          "type": "address"
        },
        {
          "internalType": "address",
          "name": "_senderToken",
          "type": "address"
        }
      ],
      "name": "unsetIntentForUser",
      "outputs": [],
      "payable": false,
      "stateMutability": "nonpayable",
      "type": "function"
    },
    {
      "constant": false,
      "inputs": [
        {
          "internalType": "bool",
          "name": "_newStatus",
          "type": "bool"
        }
      ],
      "name": "setPausedStatus",
      "outputs": [],
      "payable": false,
      "stateMutability": "nonpayable",
      "type": "function"
    },
    {
      "constant": false,
      "inputs": [
        {
          "internalType": "address payable",
          "name": "_recipient",
          "type": "address"
        }
      ],
      "name": "killContract",
      "outputs": [],
      "payable": false,
      "stateMutability": "nonpayable",
      "type": "function"
    },
    {
      "constant": true,
      "inputs": [
        {
          "internalType": "address",
          "name": "_user",
          "type": "address"
        },
        {
          "internalType": "address",
          "name": "_signerToken",
          "type": "address"
        },
        {
          "internalType": "address",
          "name": "_senderToken",
          "type": "address"
        }
      ],
      "name": "getStakedAmount",
      "outputs": [
        {
          "internalType": "uint256",
          "name": "",
          "type": "uint256"
        }
      ],
      "payable": false,
      "stateMutability": "view",
      "type": "function"
    },
    {
      "constant": true,
      "inputs": [
        {
          "internalType": "address",
          "name": "_signerToken",
          "type": "address"
        },
        {
          "internalType": "address",
          "name": "_senderToken",
          "type": "address"
        },
        {
          "internalType": "address",
          "name": "_startAddress",
          "type": "address"
        },
        {
          "internalType": "uint256",
          "name": "_count",
          "type": "uint256"
        }
      ],
      "name": "getLocators",
      "outputs": [
        {
          "internalType": "bytes32[]",
          "name": "locators",
          "type": "bytes32[]"
        }
      ],
      "payable": false,
      "stateMutability": "view",
      "type": "function"
    }
  ],
  "bytecode": "0x60806040526000600460146101000a81548160ff0219169083151502179055503480156200002c57600080fd5b50604051620044073803806200440783398181016040526200005291908101906200016d565b336000806101000a81548173ffffffffffffffffffffffffffffffffffffffff021916908373ffffffffffffffffffffffffffffffffffffffff1602179055506000809054906101000a900473ffffffffffffffffffffffffffffffffffffffff1673ffffffffffffffffffffffffffffffffffffffff16600073ffffffffffffffffffffffffffffffffffffffff167f8be0079c531659141344cd1fd0a4f28419497f9722a3daafe3b4186f6b6457e060405160405180910390a380600160006101000a81548173ffffffffffffffffffffffffffffffffffffffff021916908373ffffffffffffffffffffffffffffffffffffffff16021790555050620001e7565b6000815190506200016781620001cd565b92915050565b6000602082840312156200018057600080fd5b6000620001908482850162000156565b91505092915050565b6000620001a682620001ad565b9050919050565b600073ffffffffffffffffffffffffffffffffffffffff82169050919050565b620001d88162000199565b8114620001e457600080fd5b50565b61421080620001f76000396000f3fe608060405234801561001057600080fd5b506004361061012b5760003560e01c80638a67456a116100ad578063d59f981711610071578063d59f9817146102f4578063e96db43e14610324578063ea91f01214610354578063f2fde38b14610370578063f9f92be41461038c5761012b565b80638a67456a146102625780638da5cb5b146102805780638f32d59b1461029e5780639034acbc146102bc578063bcea363d146102d85761012b565b8063465ff63a116100f4578063465ff63a146101d0578063537df3b6146101ee5780635ac983f41461020a578063715018a61461023a57806372f702f3146102445761012b565b8062370c0814610130578063017ecc831461014c57806307712bc2146101685780631f9ad40a1461019857806344337ea1146101b4575b600080fd5b61014a600480360361014591908101906121e4565b6103bc565b005b61016660048036036101619190810190612140565b610420565b005b610182600480360361017d9190810190612052565b6109e8565b60405161018f9190612573565b60405180910390f35b6101b260048036036101ad9190810190612052565b610ccd565b005b6101ce60048036036101c99190810190612000565b610d2c565b005b6101d8610e57565b6040516101e59190612573565b60405180910390f35b61020860048036036102039190810190612000565b610e7d565b005b610224600480360361021f919081019061208e565b610fa9565b6040516102319190612866565b60405180910390f35b6102426111e4565b005b61024c6112ea565b6040516102599190612730565b60405180910390f35b61026a611310565b60405161027791906126fa565b60405180910390f35b610288611323565b6040516102959190612573565b60405180910390f35b6102a661134c565b6040516102b391906126fa565b60405180910390f35b6102d660048036036102d19190810190612000565b6113a3565b005b6102f260048036036102ed9190810190612029565b61142e565b005b61030e60048036036103099190810190612052565b6114dd565b60405161031b919061274b565b60405180910390f35b61033e600480360361033991908101906120dd565b61151f565b60405161034b91906126d8565b60405180910390f35b61036e6004803603610369919081019061208e565b61188f565b005b61038a60048036036103859190810190612000565b6118e6565b005b6103a660048036036103a19190810190612000565b611939565b6040516103b391906126fa565b60405180910390f35b6103c461134c565b610403576040517f08c379a00000000000000000000000000000000000000000000000000000000081526004016103fa906127e6565b60405180910390fd5b80600460146101000a81548160ff02191690831515021790555050565b600460149054906101000a900460ff1615610470576040517f08c379a000000000000000000000000000000000000000000000000000000000815260040161046790612846565b60405180910390fd5b600073ffffffffffffffffffffffffffffffffffffffff16600460009054906101000a900473ffffffffffffffffffffffffffffffffffffffff1673ffffffffffffffffffffffffffffffffffffffff16146105b157600460009054906101000a900473ffffffffffffffffffffffffffffffffffffffff1673ffffffffffffffffffffffffffffffffffffffff1663b7dc560f826040518263ffffffff1660e01b81526004016105219190612715565b60206040518083038186803b15801561053957600080fd5b505afa15801561054d573d6000803e3d6000fd5b505050506040513d601f19601f82011682018060405250610571919081019061220d565b6105b0576040517f08c379a00000000000000000000000000000000000000000000000000000000081526004016105a790612786565b60405180910390fd5b5b600360008573ffffffffffffffffffffffffffffffffffffffff1673ffffffffffffffffffffffffffffffffffffffff16815260200190815260200160002060009054906101000a900460ff161580156106555750600360008473ffffffffffffffffffffffffffffffffffffffff1673ffffffffffffffffffffffffffffffffffffffff16815260200190815260200160002060009054906101000a900460ff16155b610694576040517f08c379a000000000000000000000000000000000000000000000000000000000815260040161068b90612826565b60405180910390fd5b600073ffffffffffffffffffffffffffffffffffffffff16600260008673ffffffffffffffffffffffffffffffffffffffff1673ffffffffffffffffffffffffffffffffffffffff16815260200190815260200160002060008573ffffffffffffffffffffffffffffffffffffffff1673ffffffffffffffffffffffffffffffffffffffff16815260200190815260200160002060009054906101000a900473ffffffffffffffffffffffffffffffffffffffff1673ffffffffffffffffffffffffffffffffffffffff1614156107a0576040517f08c379a0000000000000000000000000000000000000000000000000000000008152600401610797906127a6565b60405180910390fd5b600082111561089a57600160009054906101000a900473ffffffffffffffffffffffffffffffffffffffff1673ffffffffffffffffffffffffffffffffffffffff166323b872dd3330856040518463ffffffff1660e01b8152600401610808939291906125d3565b602060405180830381600087803b15801561082257600080fd5b505af1158015610836573d6000803e3d6000fd5b505050506040513d601f19601f8201168201806040525061085a919081019061220d565b610899576040517f08c379a000000000000000000000000000000000000000000000000000000000815260040161089090612806565b60405180910390fd5b5b7fc5017594d2723c038bb216e5bcef3ac65910ade839c0e63253bf5b59efbf0fd7338585856040516108cf949392919061258e565b60405180910390a1600260008573ffffffffffffffffffffffffffffffffffffffff1673ffffffffffffffffffffffffffffffffffffffff16815260200190815260200160002060008473ffffffffffffffffffffffffffffffffffffffff1673ffffffffffffffffffffffffffffffffffffffff16815260200190815260200160002060009054906101000a900473ffffffffffffffffffffffffffffffffffffffff1673ffffffffffffffffffffffffffffffffffffffff16630589912a3384846040518463ffffffff1660e01b81526004016109b09392919061260a565b600060405180830381600087803b1580156109ca57600080fd5b505af11580156109de573d6000803e3d6000fd5b5050505050505050565b6000600460149054906101000a900460ff1615610a3a576040517f08c379a0000000000000000000000000000000000000000000000000000000008152600401610a3190612846565b60405180910390fd5b600073ffffffffffffffffffffffffffffffffffffffff16600260008573ffffffffffffffffffffffffffffffffffffffff1673ffffffffffffffffffffffffffffffffffffffff16815260200190815260200160002060008473ffffffffffffffffffffffffffffffffffffffff1673ffffffffffffffffffffffffffffffffffffffff16815260200190815260200160002060009054906101000a900473ffffffffffffffffffffffffffffffffffffffff1673ffffffffffffffffffffffffffffffffffffffff161415610c2857604051610b1790611ec8565b604051809103906000f080158015610b33573d6000803e3d6000fd5b50600260008573ffffffffffffffffffffffffffffffffffffffff1673ffffffffffffffffffffffffffffffffffffffff16815260200190815260200160002060008473ffffffffffffffffffffffffffffffffffffffff1673ffffffffffffffffffffffffffffffffffffffff16815260200190815260200160002060006101000a81548173ffffffffffffffffffffffffffffffffffffffff021916908373ffffffffffffffffffffffffffffffffffffffff1602179055507fb9df3a00fbc06a855c8b21697886482e3df2bb8e1e7f6872ce00d50b697000518383604051610c1f929190612641565b60405180910390a15b600260008473ffffffffffffffffffffffffffffffffffffffff1673ffffffffffffffffffffffffffffffffffffffff16815260200190815260200160002060008373ffffffffffffffffffffffffffffffffffffffff1673ffffffffffffffffffffffffffffffffffffffff16815260200190815260200160002060009054906101000a900473ffffffffffffffffffffffffffffffffffffffff16905092915050565b600460149054906101000a900460ff1615610d1d576040517f08c379a0000000000000000000000000000000000000000000000000000000008152600401610d1490612846565b60405180910390fd5b610d28338383611959565b5050565b610d3461134c565b610d73576040517f08c379a0000000000000000000000000000000000000000000000000000000008152600401610d6a906127e6565b60405180910390fd5b600360008273ffffffffffffffffffffffffffffffffffffffff1673ffffffffffffffffffffffffffffffffffffffff16815260200190815260200160002060009054906101000a900460ff16610e54576001600360008373ffffffffffffffffffffffffffffffffffffffff1673ffffffffffffffffffffffffffffffffffffffff16815260200190815260200160002060006101000a81548160ff0219169083151502179055507f6b713f4f12b0a0860e4b6b54d27ef8de95da632b1250f5c12f8254fdedbc2ebd81604051610e4b9190612573565b60405180910390a15b50565b600460009054906101000a900473ffffffffffffffffffffffffffffffffffffffff1681565b610e8561134c565b610ec4576040517f08c379a0000000000000000000000000000000000000000000000000000000008152600401610ebb906127e6565b60405180910390fd5b600360008273ffffffffffffffffffffffffffffffffffffffff1673ffffffffffffffffffffffffffffffffffffffff16815260200190815260200160002060009054906101000a900460ff1615610fa6576000600360008373ffffffffffffffffffffffffffffffffffffffff1673ffffffffffffffffffffffffffffffffffffffff16815260200190815260200160002060006101000a81548160ff0219169083151502179055507f3afada3900b4909463d8a846fbdc12d6b5c4e8030bd6bc1215822ecee62357ba81604051610f9d9190612573565b60405180910390a15b50565b60008073ffffffffffffffffffffffffffffffffffffffff16600260008573ffffffffffffffffffffffffffffffffffffffff1673ffffffffffffffffffffffffffffffffffffffff16815260200190815260200160002060008473ffffffffffffffffffffffffffffffffffffffff1673ffffffffffffffffffffffffffffffffffffffff16815260200190815260200160002060009054906101000a900473ffffffffffffffffffffffffffffffffffffffff1673ffffffffffffffffffffffffffffffffffffffff1614156110b6576040517f08c379a00000000000000000000000000000000000000000000000000000000081526004016110ad906127a6565b60405180910390fd5b600260008473ffffffffffffffffffffffffffffffffffffffff1673ffffffffffffffffffffffffffffffffffffffff16815260200190815260200160002060008373ffffffffffffffffffffffffffffffffffffffff1673ffffffffffffffffffffffffffffffffffffffff16815260200190815260200160002060009054906101000a900473ffffffffffffffffffffffffffffffffffffffff1673ffffffffffffffffffffffffffffffffffffffff1663d47875d0856040518263ffffffff1660e01b815260040161118b9190612573565b60206040518083038186803b1580156111a357600080fd5b505afa1580156111b7573d6000803e3d6000fd5b505050506040513d601f19601f820116820180604052506111db9190810190612236565b90509392505050565b6111ec61134c565b61122b576040517f08c379a0000000000000000000000000000000000000000000000000000000008152600401611222906127e6565b60405180910390fd5b600073ffffffffffffffffffffffffffffffffffffffff166000809054906101000a900473ffffffffffffffffffffffffffffffffffffffff1673ffffffffffffffffffffffffffffffffffffffff167f8be0079c531659141344cd1fd0a4f28419497f9722a3daafe3b4186f6b6457e060405160405180910390a360008060006101000a81548173ffffffffffffffffffffffffffffffffffffffff021916908373ffffffffffffffffffffffffffffffffffffffff160217905550565b600160009054906101000a900473ffffffffffffffffffffffffffffffffffffffff1681565b600460149054906101000a900460ff1681565b60008060009054906101000a900473ffffffffffffffffffffffffffffffffffffffff16905090565b60008060009054906101000a900473ffffffffffffffffffffffffffffffffffffffff1673ffffffffffffffffffffffffffffffffffffffff163373ffffffffffffffffffffffffffffffffffffffff1614905090565b6113ab61134c565b6113ea576040517f08c379a00000000000000000000000000000000000000000000000000000000081526004016113e1906127e6565b60405180910390fd5b80600460006101000a81548173ffffffffffffffffffffffffffffffffffffffff021916908373ffffffffffffffffffffffffffffffffffffffff16021790555050565b61143661134c565b611475576040517f08c379a000000000000000000000000000000000000000000000000000000000815260040161146c906127e6565b60405180910390fd5b600460149054906101000a900460ff166114c4576040517f08c379a00000000000000000000000000000000000000000000000000000000081526004016114bb906127c6565b60405180910390fd5b8073ffffffffffffffffffffffffffffffffffffffff16ff5b60026020528160005260406000206020528060005260406000206000915091509054906101000a900473ffffffffffffffffffffffffffffffffffffffff1681565b6060600460149054906101000a900460ff1615611571576040517f08c379a000000000000000000000000000000000000000000000000000000000815260040161156890612846565b60405180910390fd5b600360008673ffffffffffffffffffffffffffffffffffffffff1673ffffffffffffffffffffffffffffffffffffffff16815260200190815260200160002060009054906101000a900460ff16806116125750600360008573ffffffffffffffffffffffffffffffffffffffff1673ffffffffffffffffffffffffffffffffffffffff16815260200190815260200160002060009054906101000a900460ff165b1561164f5760006040519080825280602002602001820160405280156116475781602001602082028038833980820191505090505b509050611887565b600073ffffffffffffffffffffffffffffffffffffffff16600260008773ffffffffffffffffffffffffffffffffffffffff1673ffffffffffffffffffffffffffffffffffffffff16815260200190815260200160002060008673ffffffffffffffffffffffffffffffffffffffff1673ffffffffffffffffffffffffffffffffffffffff16815260200190815260200160002060009054906101000a900473ffffffffffffffffffffffffffffffffffffffff1673ffffffffffffffffffffffffffffffffffffffff1614156117585760006040519080825280602002602001820160405280156117505781602001602082028038833980820191505090505b509050611887565b600260008673ffffffffffffffffffffffffffffffffffffffff1673ffffffffffffffffffffffffffffffffffffffff16815260200190815260200160002060008573ffffffffffffffffffffffffffffffffffffffff1673ffffffffffffffffffffffffffffffffffffffff16815260200190815260200160002060009054906101000a900473ffffffffffffffffffffffffffffffffffffffff1673ffffffffffffffffffffffffffffffffffffffff16630b30a8d784846040518363ffffffff1660e01b815260040161182f9291906126af565b60006040518083038186803b15801561184757600080fd5b505afa15801561185b573d6000803e3d6000fd5b505050506040513d6000823e3d601f19601f8201168201806040525061188491908101906121a3565b90505b949350505050565b61189761134c565b6118d6576040517f08c379a00000000000000000000000000000000000000000000000000000000081526004016118cd906127e6565b60405180910390fd5b6118e1838383611959565b505050565b6118ee61134c565b61192d576040517f08c379a0000000000000000000000000000000000000000000000000000000008152600401611924906127e6565b60405180910390fd5b61193681611d9a565b50565b60036020528060005260406000206000915054906101000a900460ff1681565b600073ffffffffffffffffffffffffffffffffffffffff16600260008473ffffffffffffffffffffffffffffffffffffffff1673ffffffffffffffffffffffffffffffffffffffff16815260200190815260200160002060008373ffffffffffffffffffffffffffffffffffffffff1673ffffffffffffffffffffffffffffffffffffffff16815260200190815260200160002060009054906101000a900473ffffffffffffffffffffffffffffffffffffffff1673ffffffffffffffffffffffffffffffffffffffff161415611a65576040517f08c379a0000000000000000000000000000000000000000000000000000000008152600401611a5c906127a6565b60405180910390fd5b6000600260008473ffffffffffffffffffffffffffffffffffffffff1673ffffffffffffffffffffffffffffffffffffffff16815260200190815260200160002060008373ffffffffffffffffffffffffffffffffffffffff1673ffffffffffffffffffffffffffffffffffffffff16815260200190815260200160002060009054906101000a900473ffffffffffffffffffffffffffffffffffffffff1673ffffffffffffffffffffffffffffffffffffffff1663d47875d0856040518263ffffffff1660e01b8152600401611b3c9190612573565b60206040518083038186803b158015611b5457600080fd5b505afa158015611b68573d6000803e3d6000fd5b505050506040513d601f19601f82011682018060405250611b8c9190810190612236565b9050600260008473ffffffffffffffffffffffffffffffffffffffff1673ffffffffffffffffffffffffffffffffffffffff16815260200190815260200160002060008373ffffffffffffffffffffffffffffffffffffffff1673ffffffffffffffffffffffffffffffffffffffff16815260200190815260200160002060009054906101000a900473ffffffffffffffffffffffffffffffffffffffff1673ffffffffffffffffffffffffffffffffffffffff16630ddcecf0856040518263ffffffff1660e01b8152600401611c639190612573565b600060405180830381600087803b158015611c7d57600080fd5b505af1158015611c91573d6000803e3d6000fd5b505050506000811115611d5757600160009054906101000a900473ffffffffffffffffffffffffffffffffffffffff1673ffffffffffffffffffffffffffffffffffffffff1663a9059cbb85836040518363ffffffff1660e01b8152600401611cfb9291906126af565b602060405180830381600087803b158015611d1557600080fd5b505af1158015611d29573d6000803e3d6000fd5b505050506040513d601f19601f82011682018060405250611d4d919081019061220d565b611d5657600080fd5b5b7f2cbcd809a4c90d11f8d12c4b6d09986b255ae1e68f54f076c145fbb2185904e184848484604051611d8c949392919061266a565b60405180910390a150505050565b600073ffffffffffffffffffffffffffffffffffffffff168173ffffffffffffffffffffffffffffffffffffffff161415611e0a576040517f08c379a0000000000000000000000000000000000000000000000000000000008152600401611e0190612766565b60405180910390fd5b8073ffffffffffffffffffffffffffffffffffffffff166000809054906101000a900473ffffffffffffffffffffffffffffffffffffffff1673ffffffffffffffffffffffffffffffffffffffff167f8be0079c531659141344cd1fd0a4f28419497f9722a3daafe3b4186f6b6457e060405160405180910390a3806000806101000a81548173ffffffffffffffffffffffffffffffffffffffff021916908373ffffffffffffffffffffffffffffffffffffffff16021790555050565b61175880612a7683390190565b600081359050611ee481612a02565b92915050565b600081359050611ef981612a19565b92915050565b600082601f830112611f1057600080fd5b8151611f23611f1e826128ae565b612881565b91508181835260208401935060208101905083856020840282011115611f4857600080fd5b60005b83811015611f785781611f5e8882611fc1565b845260208401935060208301925050600181019050611f4b565b5050505092915050565b600081359050611f9181612a30565b92915050565b600081519050611fa681612a30565b92915050565b600081359050611fbb81612a47565b92915050565b600081519050611fd081612a47565b92915050565b600081359050611fe581612a5e565b92915050565b600081519050611ffa81612a5e565b92915050565b60006020828403121561201257600080fd5b600061202084828501611ed5565b91505092915050565b60006020828403121561203b57600080fd5b600061204984828501611eea565b91505092915050565b6000806040838503121561206557600080fd5b600061207385828601611ed5565b925050602061208485828601611ed5565b9150509250929050565b6000806000606084860312156120a357600080fd5b60006120b186828701611ed5565b93505060206120c286828701611ed5565b92505060406120d386828701611ed5565b9150509250925092565b600080600080608085870312156120f357600080fd5b600061210187828801611ed5565b945050602061211287828801611ed5565b935050604061212387828801611ed5565b925050606061213487828801611fd6565b91505092959194509250565b6000806000806080858703121561215657600080fd5b600061216487828801611ed5565b945050602061217587828801611ed5565b935050604061218687828801611fd6565b925050606061219787828801611fac565b91505092959194509250565b6000602082840312156121b557600080fd5b600082015167ffffffffffffffff8111156121cf57600080fd5b6121db84828501611eff565b91505092915050565b6000602082840312156121f657600080fd5b600061220484828501611f82565b91505092915050565b60006020828403121561221f57600080fd5b600061222d84828501611f97565b91505092915050565b60006020828403121561224857600080fd5b600061225684828501611feb565b91505092915050565b600061226b8383612302565b60208301905092915050565b61228081612984565b82525050565b61228f81612920565b82525050565b60006122a0826128e6565b6122aa81856128fe565b93506122b5836128d6565b8060005b838110156122e65781516122cd888261225f565b97506122d8836128f1565b9250506001810190506122b9565b5085935050505092915050565b6122fc81612944565b82525050565b61230b81612950565b82525050565b61231a81612950565b82525050565b61232981612996565b82525050565b612338816129ba565b82525050565b600061234b60268361290f565b91507f4f776e61626c653a206e6577206f776e657220697320746865207a65726f206160008301527f64647265737300000000000000000000000000000000000000000000000000006020830152604082019050919050565b60006123b160178361290f565b91507f4c4f4341544f525f4e4f545f57484954454c49535445440000000000000000006000830152602082019050919050565b60006123f160148361290f565b91507f494e4445585f444f45535f4e4f545f45584953540000000000000000000000006000830152602082019050919050565b600061243160138361290f565b91507f434f4e54524143545f4e4f545f504155534544000000000000000000000000006000830152602082019050919050565b600061247160208361290f565b91507f4f776e61626c653a2063616c6c6572206973206e6f7420746865206f776e65726000830152602082019050919050565b60006124b1600f8361290f565b91507f554e41424c455f544f5f5354414b4500000000000000000000000000000000006000830152602082019050919050565b60006124f160138361290f565b91507f504149525f49535f424c41434b4c4953544544000000000000000000000000006000830152602082019050919050565b600061253160128361290f565b91507f434f4e54524143545f49535f50415553454400000000000000000000000000006000830152602082019050919050565b61256d8161297a565b82525050565b60006020820190506125886000830184612286565b92915050565b60006080820190506125a36000830187612277565b6125b06020830186612286565b6125bd6040830185612286565b6125ca6060830184612564565b95945050505050565b60006060820190506125e86000830186612277565b6125f56020830185612286565b6126026040830184612564565b949350505050565b600060608201905061261f6000830186612277565b61262c6020830185612564565b6126396040830184612311565b949350505050565b60006040820190506126566000830185612286565b6126636020830184612286565b9392505050565b600060808201905061267f6000830187612286565b61268c6020830186612286565b6126996040830185612286565b6126a66060830184612564565b95945050505050565b60006040820190506126c46000830185612286565b6126d16020830184612564565b9392505050565b600060208201905081810360008301526126f28184612295565b905092915050565b600060208201905061270f60008301846122f3565b92915050565b600060208201905061272a6000830184612311565b92915050565b60006020820190506127456000830184612320565b92915050565b6000602082019050612760600083018461232f565b92915050565b6000602082019050818103600083015261277f8161233e565b9050919050565b6000602082019050818103600083015261279f816123a4565b9050919050565b600060208201905081810360008301526127bf816123e4565b9050919050565b600060208201905081810360008301526127df81612424565b9050919050565b600060208201905081810360008301526127ff81612464565b9050919050565b6000602082019050818103600083015261281f816124a4565b9050919050565b6000602082019050818103600083015261283f816124e4565b9050919050565b6000602082019050818103600083015261285f81612524565b9050919050565b600060208201905061287b6000830184612564565b92915050565b6000604051905081810181811067ffffffffffffffff821117156128a457600080fd5b8060405250919050565b600067ffffffffffffffff8211156128c557600080fd5b602082029050602081019050919050565b6000819050602082019050919050565b600081519050919050565b6000602082019050919050565b600082825260208201905092915050565b600082825260208201905092915050565b600061292b8261295a565b9050919050565b600061293d8261295a565b9050919050565b60008115159050919050565b6000819050919050565b600073ffffffffffffffffffffffffffffffffffffffff82169050919050565b6000819050919050565b600061298f826129de565b9050919050565b60006129a1826129a8565b9050919050565b60006129b38261295a565b9050919050565b60006129c5826129cc565b9050919050565b60006129d78261295a565b9050919050565b60006129e9826129f0565b9050919050565b60006129fb8261295a565b9050919050565b612a0b81612920565b8114612a1657600080fd5b50565b612a2281612932565b8114612a2d57600080fd5b50565b612a3981612944565b8114612a4457600080fd5b50565b612a5081612950565b8114612a5b57600080fd5b50565b612a678161297a565b8114612a7257600080fd5b5056fe608060405234801561001057600080fd5b50336000806101000a81548173ffffffffffffffffffffffffffffffffffffffff021916908373ffffffffffffffffffffffffffffffffffffffff1602179055506000809054906101000a900473ffffffffffffffffffffffffffffffffffffffff1673ffffffffffffffffffffffffffffffffffffffff16600073ffffffffffffffffffffffffffffffffffffffff167f8be0079c531659141344cd1fd0a4f28419497f9722a3daafe3b4186f6b6457e060405160405180910390a360405180608001604052806000801b81526020016000815260200173ffffffffffffffffffffffffffffffffffffffff8016815260200173ffffffffffffffffffffffffffffffffffffffff80168152506002600073ffffffffffffffffffffffffffffffffffffffff801673ffffffffffffffffffffffffffffffffffffffff168152602001908152602001600020600082015181600001556020820151816001015560408201518160020160006101000a81548173ffffffffffffffffffffffffffffffffffffffff021916908373ffffffffffffffffffffffffffffffffffffffff16021790555060608201518160030160006101000a81548173ffffffffffffffffffffffffffffffffffffffff021916908373ffffffffffffffffffffffffffffffffffffffff160217905550905050611547806102116000396000f3fe608060405234801561001057600080fd5b50600436106100935760003560e01c8063715018a611610066578063715018a61461011e5780638da5cb5b146101285780638f32d59b14610146578063d47875d014610164578063f2fde38b1461019457610093565b80630589912a146100985780630b30a8d7146100b45780630ddcecf0146100e45780631f7b6d3214610100575b600080fd5b6100b260048036036100ad91908101906110a9565b6101b0565b005b6100ce60048036036100c9919081019061106d565b610548565b6040516100db919061132b565b60405180910390f35b6100fe60048036036100f99190810190611044565b6107bc565b005b610108610b0e565b6040516101159190611408565b60405180910390f35b610126610b14565b005b610130610c1a565b60405161013d9190611310565b60405180910390f35b61014e610c43565b60405161015b919061134d565b60405180910390f35b61017e60048036036101799190810190611044565b610c9a565b60405161018b9190611408565b60405180910390f35b6101ae60048036036101a99190810190611044565b610ce6565b005b6101b8610c43565b6101f7576040517f08c379a00000000000000000000000000000000000000000000000000000000081526004016101ee906113c8565b60405180910390fd5b61020083610d39565b15610240576040517f08c379a0000000000000000000000000000000000000000000000000000000008152600401610237906113e8565b60405180910390fd5b600061024b83610d8b565b90506000600260008373ffffffffffffffffffffffffffffffffffffffff1673ffffffffffffffffffffffffffffffffffffffff16815260200190815260200160002060020160009054906101000a900473ffffffffffffffffffffffffffffffffffffffff16905084600260008373ffffffffffffffffffffffffffffffffffffffff1673ffffffffffffffffffffffffffffffffffffffff16815260200190815260200160002060030160006101000a81548173ffffffffffffffffffffffffffffffffffffffff021916908373ffffffffffffffffffffffffffffffffffffffff16021790555084600260008473ffffffffffffffffffffffffffffffffffffffff1673ffffffffffffffffffffffffffffffffffffffff16815260200190815260200160002060020160006101000a81548173ffffffffffffffffffffffffffffffffffffffff021916908373ffffffffffffffffffffffffffffffffffffffff16021790555060405180608001604052808481526020018581526020018273ffffffffffffffffffffffffffffffffffffffff1681526020018373ffffffffffffffffffffffffffffffffffffffff16815250600260008773ffffffffffffffffffffffffffffffffffffffff1673ffffffffffffffffffffffffffffffffffffffff168152602001908152602001600020600082015181600001556020820151816001015560408201518160020160006101000a81548173ffffffffffffffffffffffffffffffffffffffff021916908373ffffffffffffffffffffffffffffffffffffffff16021790555060608201518160030160006101000a81548173ffffffffffffffffffffffffffffffffffffffff021916908373ffffffffffffffffffffffffffffffffffffffff1602179055509050506001805401600181905550828573ffffffffffffffffffffffffffffffffffffffff167f62d8270f77cd1e7351e3e92e7001b363e90eed2ef3394dbd51201ceee3672630866040516105399190611408565b60405180910390a35050505050565b606060006002600073ffffffffffffffffffffffffffffffffffffffff801673ffffffffffffffffffffffffffffffffffffffff16815260200190815260200160002060030160009054906101000a900473ffffffffffffffffffffffffffffffffffffffff169050600073ffffffffffffffffffffffffffffffffffffffff168473ffffffffffffffffffffffffffffffffffffffff161415801561061a575073ffffffffffffffffffffffffffffffffffffffff80168473ffffffffffffffffffffffffffffffffffffffff1614155b1561066b5761062884610d39565b610667576040517f08c379a000000000000000000000000000000000000000000000000000000000815260040161065e90611388565b60405180910390fd5b8390505b8260405190808252806020026020018201604052801561069a5781602001602082028038833980820191505090505b50915060008090505b838160ff161080156106e1575073ffffffffffffffffffffffffffffffffffffffff80168273ffffffffffffffffffffffffffffffffffffffff1614155b156107b457600260008373ffffffffffffffffffffffffffffffffffffffff1673ffffffffffffffffffffffffffffffffffffffff16815260200190815260200160002060000154838260ff168151811061073857fe5b602002602001018181525050600181019050600260008373ffffffffffffffffffffffffffffffffffffffff1673ffffffffffffffffffffffffffffffffffffffff16815260200190815260200160002060030160009054906101000a900473ffffffffffffffffffffffffffffffffffffffff1691506106a3565b505092915050565b6107c4610c43565b610803576040517f08c379a00000000000000000000000000000000000000000000000000000000081526004016107fa906113c8565b60405180910390fd5b61080c81610d39565b61084b576040517f08c379a0000000000000000000000000000000000000000000000000000000008152600401610842906113a8565b60405180910390fd5b6000600260008373ffffffffffffffffffffffffffffffffffffffff1673ffffffffffffffffffffffffffffffffffffffff16815260200190815260200160002060020160009054906101000a900473ffffffffffffffffffffffffffffffffffffffff1690506000600260008473ffffffffffffffffffffffffffffffffffffffff1673ffffffffffffffffffffffffffffffffffffffff16815260200190815260200160002060030160009054906101000a900473ffffffffffffffffffffffffffffffffffffffff16905080600260008473ffffffffffffffffffffffffffffffffffffffff1673ffffffffffffffffffffffffffffffffffffffff16815260200190815260200160002060030160006101000a81548173ffffffffffffffffffffffffffffffffffffffff021916908373ffffffffffffffffffffffffffffffffffffffff16021790555081600260008373ffffffffffffffffffffffffffffffffffffffff1673ffffffffffffffffffffffffffffffffffffffff16815260200190815260200160002060020160006101000a81548173ffffffffffffffffffffffffffffffffffffffff021916908373ffffffffffffffffffffffffffffffffffffffff160217905550600260008473ffffffffffffffffffffffffffffffffffffffff1673ffffffffffffffffffffffffffffffffffffffff16815260200190815260200160002060008082016000905560018201600090556002820160006101000a81549073ffffffffffffffffffffffffffffffffffffffff02191690556003820160006101000a81549073ffffffffffffffffffffffffffffffffffffffff0219169055505060018054036001819055508273ffffffffffffffffffffffffffffffffffffffff167fded788c834b3ea8a384c1495466a3a4a827c378cd9eafe5c159d90291ce0184460405160405180910390a2505050565b60015481565b610b1c610c43565b610b5b576040517f08c379a0000000000000000000000000000000000000000000000000000000008152600401610b52906113c8565b60405180910390fd5b600073ffffffffffffffffffffffffffffffffffffffff166000809054906101000a900473ffffffffffffffffffffffffffffffffffffffff1673ffffffffffffffffffffffffffffffffffffffff167f8be0079c531659141344cd1fd0a4f28419497f9722a3daafe3b4186f6b6457e060405160405180910390a360008060006101000a81548173ffffffffffffffffffffffffffffffffffffffff021916908373ffffffffffffffffffffffffffffffffffffffff160217905550565b60008060009054906101000a900473ffffffffffffffffffffffffffffffffffffffff16905090565b60008060009054906101000a900473ffffffffffffffffffffffffffffffffffffffff1673ffffffffffffffffffffffffffffffffffffffff163373ffffffffffffffffffffffffffffffffffffffff1614905090565b6000600260008373ffffffffffffffffffffffffffffffffffffffff1673ffffffffffffffffffffffffffffffffffffffff168152602001908152602001600020600101549050919050565b610cee610c43565b610d2d576040517f08c379a0000000000000000000000000000000000000000000000000000000008152600401610d24906113c8565b60405180910390fd5b610d3681610ed7565b50565b60008060001b600260008473ffffffffffffffffffffffffffffffffffffffff1673ffffffffffffffffffffffffffffffffffffffff1681526020019081526020016000206000015414159050919050565b6000806002600073ffffffffffffffffffffffffffffffffffffffff801673ffffffffffffffffffffffffffffffffffffffff16815260200190815260200160002060030160009054906101000a900473ffffffffffffffffffffffffffffffffffffffff1690506000831415610e195773ffffffffffffffffffffffffffffffffffffffff915050610ed2565b5b600260008273ffffffffffffffffffffffffffffffffffffffff1673ffffffffffffffffffffffffffffffffffffffff168152602001908152602001600020600101548311610ecd57600260008273ffffffffffffffffffffffffffffffffffffffff1673ffffffffffffffffffffffffffffffffffffffff16815260200190815260200160002060030160009054906101000a900473ffffffffffffffffffffffffffffffffffffffff169050610e1a565b809150505b919050565b600073ffffffffffffffffffffffffffffffffffffffff168173ffffffffffffffffffffffffffffffffffffffff161415610f47576040517f08c379a0000000000000000000000000000000000000000000000000000000008152600401610f3e90611368565b60405180910390fd5b8073ffffffffffffffffffffffffffffffffffffffff166000809054906101000a900473ffffffffffffffffffffffffffffffffffffffff1673ffffffffffffffffffffffffffffffffffffffff167f8be0079c531659141344cd1fd0a4f28419497f9722a3daafe3b4186f6b6457e060405160405180910390a3806000806101000a81548173ffffffffffffffffffffffffffffffffffffffff021916908373ffffffffffffffffffffffffffffffffffffffff16021790555050565b600081359050611014816114bf565b92915050565b600081359050611029816114d6565b92915050565b60008135905061103e816114ed565b92915050565b60006020828403121561105657600080fd5b600061106484828501611005565b91505092915050565b6000806040838503121561108057600080fd5b600061108e85828601611005565b925050602061109f8582860161102f565b9150509250929050565b6000806000606084860312156110be57600080fd5b60006110cc86828701611005565b93505060206110dd8682870161102f565b92505060406110ee8682870161101a565b9150509250925092565b6000611104838361118c565b60208301905092915050565b6111198161146d565b82525050565b600061112a82611433565b611134818561144b565b935061113f83611423565b8060005b8381101561117057815161115788826110f8565b97506111628361143e565b925050600181019050611143565b5085935050505092915050565b6111868161147f565b82525050565b6111958161148b565b82525050565b60006111a860268361145c565b91507f4f776e61626c653a206e6577206f776e657220697320746865207a65726f206160008301527f64647265737300000000000000000000000000000000000000000000000000006020830152604082019050919050565b600061120e60158361145c565b91507f53544152545f454e5452595f4e4f545f464f554e4400000000000000000000006000830152602082019050919050565b600061124e60148361145c565b91507f454e5452595f444f45535f4e4f545f45584953540000000000000000000000006000830152602082019050919050565b600061128e60208361145c565b91507f4f776e61626c653a2063616c6c6572206973206e6f7420746865206f776e65726000830152602082019050919050565b60006112ce60148361145c565b91507f454e5452595f414c52454144595f4558495354530000000000000000000000006000830152602082019050919050565b61130a816114b5565b82525050565b60006020820190506113256000830184611110565b92915050565b60006020820190508181036000830152611345818461111f565b905092915050565b6000602082019050611362600083018461117d565b92915050565b600060208201905081810360008301526113818161119b565b9050919050565b600060208201905081810360008301526113a181611201565b9050919050565b600060208201905081810360008301526113c181611241565b9050919050565b600060208201905081810360008301526113e181611281565b9050919050565b60006020820190508181036000830152611401816112c1565b9050919050565b600060208201905061141d6000830184611301565b92915050565b6000819050602082019050919050565b600081519050919050565b6000602082019050919050565b600082825260208201905092915050565b600082825260208201905092915050565b600061147882611495565b9050919050565b60008115159050919050565b6000819050919050565b600073ffffffffffffffffffffffffffffffffffffffff82169050919050565b6000819050919050565b6114c88161146d565b81146114d357600080fd5b50565b6114df8161148b565b81146114ea57600080fd5b50565b6114f6816114b5565b811461150157600080fd5b5056fea365627a7a72315820f453fa3f36fcaf120f122b35dfd506d04b64ebb411df8e4ca9cf8438d4cad7a36c6578706572696d656e74616cf564736f6c634300050c0040a365627a7a72315820646eb3d7ee85860a5d648d918df53c9bcd2fa5feaae6988425d31f7092085da46c6578706572696d656e74616cf564736f6c634300050c0040",
  "source": "/*\n  Copyright 2019 Swap Holdings Ltd.\n\n  Licensed under the Apache License, Version 2.0 (the \"License\");\n  you may not use this file except in compliance with the License.\n  You may obtain a copy of the License at\n\n    http://www.apache.org/licenses/LICENSE-2.0\n\n  Unless required by applicable law or agreed to in writing, software\n  distributed under the License is distributed on an \"AS IS\" BASIS,\n  WITHOUT WARRANTIES OR CONDITIONS OF ANY KIND, either express or implied.\n  See the License for the specific language governing permissions and\n  limitations under the License.\n*/\n\npragma solidity 0.5.12;\npragma experimental ABIEncoderV2;\n\nimport \"@airswap/indexer/contracts/interfaces/IIndexer.sol\";\nimport \"@airswap/indexer/contracts/interfaces/ILocatorWhitelist.sol\";\nimport \"@airswap/index/contracts/Index.sol\";\nimport \"openzeppelin-solidity/contracts/token/ERC20/IERC20.sol\";\nimport \"openzeppelin-solidity/contracts/ownership/Ownable.sol\";\n\n/**\n  * @title Indexer: A Collection of Index contracts by Token Pair\n  */\ncontract Indexer is IIndexer, Ownable {\n\n  // Token to be used for staking (ERC-20)\n  IERC20 public stakingToken;\n\n  // Mapping of signer token to sender token to index\n  mapping (address => mapping (address => Index)) public indexes;\n\n  // Mapping of token address to boolean\n  mapping (address => bool) public blacklist;\n\n  // The whitelist contract for checking whether a peer is whitelisted\n  address public locatorWhitelist;\n\n  // Boolean marking when the contract is paused - users cannot call functions when true\n  bool public contractPaused = false;\n\n  /**\n    * @notice Contract Constructor\n    * @param _stakingToken address\n    */\n  constructor(\n    address _stakingToken\n  ) public {\n    stakingToken = IERC20(_stakingToken);\n  }\n\n  /**\n    * @notice Modifier to prevent function calling unless the contract is not paused\n    */\n  modifier notPaused() {\n    require(!contractPaused, \"CONTRACT_IS_PAUSED\");\n    _;\n  }\n\n  /**\n    * @notice Modifier to prevent function calling unless the contract is paused\n    */\n  modifier paused() {\n    require(contractPaused, \"CONTRACT_NOT_PAUSED\");\n    _;\n  }\n\n  /**\n    * @notice Set the address of an ILocatorWhitelist to use\n    * @dev Clear the whitelist with a null address (0x0)\n    * @param _locatorWhitelist address Locator whitelist\n    */\n  function setLocatorWhitelist(\n    address _locatorWhitelist\n  ) external onlyOwner {\n    locatorWhitelist = _locatorWhitelist;\n  }\n\n  /**\n    * @notice Create an Index (List of Locators for a Token Pair)\n    * @dev Deploys a new Index contract and stores the address\n    *\n    * @param _signerToken address Signer token for the Index\n    * @param _senderToken address Sender token for the Index\n    */\n  function createIndex(\n    address _signerToken,\n    address _senderToken\n  ) external notPaused returns (address) {\n\n    // If the Index does not exist, create it.\n    if (indexes[_signerToken][_senderToken] == Index(0)) {\n      // Create a new Index contract for the token pair.\n      indexes[_signerToken][_senderToken] = new Index();\n\n      emit CreateIndex(_signerToken, _senderToken);\n    }\n\n    // Return the address of the Index contract.\n    return address(indexes[_signerToken][_senderToken]);\n  }\n\n  /**\n    * @notice Add a Token to the Blacklist\n    * @param _token address Token to blacklist\n    */\n  function addToBlacklist(\n    address _token\n  ) external onlyOwner {\n    if (!blacklist[_token]) {\n      blacklist[_token] = true;\n      emit AddToBlacklist(_token);\n    }\n  }\n\n  /**\n    * @notice Remove a Token from the Blacklist\n    * @param _token address Token to remove from the blacklist\n    */\n  function removeFromBlacklist(\n    address _token\n  ) external onlyOwner {\n    if (blacklist[_token]) {\n      blacklist[_token] = false;\n      emit RemoveFromBlacklist(_token);\n    }\n  }\n\n  /**\n    * @notice Set an Intent to Trade\n    * @dev Requires approval to transfer staking token for sender\n    *\n    * @param _signerToken address Signer token of the Index being staked\n    * @param _senderToken address Sender token of the Index being staked\n    * @param _amount uint256 Amount being staked\n    * @param _locator bytes32 Locator of the staker\n    */\n  function setIntent(\n    address _signerToken,\n    address _senderToken,\n    uint256 _amount,\n    bytes32 _locator\n  ) external notPaused {\n\n    // If whitelist set, ensure the locator is valid.\n    if (locatorWhitelist != address(0)) {\n      require(ILocatorWhitelist(locatorWhitelist).has(_locator),\n      \"LOCATOR_NOT_WHITELISTED\");\n    }\n\n    // Ensure neither of the tokens are blacklisted.\n    require(!blacklist[_signerToken] && !blacklist[_senderToken],\n      \"PAIR_IS_BLACKLISTED\");\n\n    // Ensure the index exists.\n    require(indexes[_signerToken][_senderToken] != Index(0),\n      \"INDEX_DOES_NOT_EXIST\");\n\n    // Only transfer for staking if amount is set.\n    if (_amount > 0) {\n\n      // Transfer the _amount for staking.\n      require(stakingToken.transferFrom(msg.sender, address(this), _amount),\n        \"UNABLE_TO_STAKE\");\n    }\n\n    emit Stake(msg.sender, _signerToken, _senderToken, _amount);\n\n    // Set the locator on the index.\n    indexes[_signerToken][_senderToken].setLocator(msg.sender, _amount, _locator);\n  }\n\n  /**\n    * @notice Unset an Intent to Trade\n    * @dev Users are allowed unstake from blacklisted indexes\n    *\n    * @param _signerToken address Signer token of the Index being unstaked\n    * @param _senderToken address Sender token of the Index being staked\n    */\n  function unsetIntent(\n    address _signerToken,\n    address _senderToken\n  ) external notPaused {\n    unsetUserIntent(msg.sender, _signerToken, _senderToken);\n  }\n\n  /**\n    * @notice Unset Intent for a User\n    * @dev Only callable by owner\n    * @dev This can be used when contractPaused to return staked tokens to users\n    *\n    * @param _user address\n    * @param _signerToken address Signer token of the Index being unstaked\n    * @param _senderToken address Signer token of the Index being unstaked\n    */\n  function unsetIntentForUser(\n    address _user,\n    address _signerToken,\n    address _senderToken\n  ) external onlyOwner {\n    unsetUserIntent(_user, _signerToken, _senderToken);\n  }\n\n  /**\n    * @notice Set whether the contract is paused\n    * @dev Only callable by owner\n    *\n    * @param _newStatus bool New status of contractPaused\n    */\n  function setPausedStatus(bool _newStatus) external onlyOwner {\n    contractPaused = _newStatus;\n  }\n\n  /**\n    * @notice Destroy the Contract\n    * @dev Only callable by owner and when contractPaused\n    *\n    * @param _recipient address Recipient of any money in the contract\n    */\n  function killContract(address payable _recipient) external onlyOwner paused {\n    selfdestruct(_recipient);\n  }\n\n  /**\n    * @notice Gets the Stake Amount for a User\n    * @param _user address User who staked\n    * @param _signerToken address Signer token the user staked on\n    * @param _senderToken address Sender token the user staked on\n    * @return uint256 Amount the user staked\n    */\n  function getStakedAmount(\n    address _user,\n    address _signerToken,\n    address _senderToken\n  ) external view returns (uint256) {\n    // Ensure the index exists.\n    require(indexes[_signerToken][_senderToken] != Index(0),\n      \"INDEX_DOES_NOT_EXIST\");\n\n    // Return the score, equivalent to the stake amount.\n    return indexes[_signerToken][_senderToken].getScore(_user);\n  }\n\n  /**\n    * @notice Get the locators of those trading a token pair\n    * @dev Users are allowed unstake from blacklisted indexes\n    *\n    * @param _signerToken address Signer token of the trading pair\n    * @param _senderToken address Sender token of the trading pair\n    * @param _startAddress address Address to start from\n    * @param _count uint256 Total number of locators to return\n    * @return locators bytes32[]\n    */\n  function getLocators(\n    address _signerToken,\n    address _senderToken,\n    address _startAddress,\n    uint256 _count\n  ) external view notPaused returns (\n    bytes32[] memory locators\n  ) {\n    // Ensure neither token is blacklisted.\n    if (blacklist[_signerToken] || blacklist[_senderToken]) {\n      return new bytes32[](0);\n    }\n\n    // Ensure the index exists.\n    if (indexes[_signerToken][_senderToken] == Index(0)) {\n      return new bytes32[](0);\n    }\n\n    // Return an array of locators for the index.\n    return indexes[_signerToken][_senderToken].getLocators(_startAddress, _count);\n  }\n\n  /**\n    * @notice Unset intents and return staked tokens\n    * @param _user address Address of the user who staked\n    * @param _signerToken address Signer token of the trading pair\n    * @param _senderToken address Sender token of the trading pair\n    */\n  function unsetUserIntent(\n    address _user,\n    address _signerToken,\n    address _senderToken\n  ) internal {\n    // Ensure the index exists.\n    require(indexes[_signerToken][_senderToken] != Index(0),\n      \"INDEX_DOES_NOT_EXIST\");\n\n     // Get the score for the _user.\n    uint256 score = indexes[_signerToken][_senderToken].getScore(_user);\n\n    // Unset the locator on the index.\n    indexes[_signerToken][_senderToken].unsetLocator(_user);\n\n    if (score > 0) {\n      // Return the staked tokens. Reverts on failure.\n      require(stakingToken.transfer(_user, score));\n    }\n\n    emit Unstake(_user, _signerToken, _senderToken, score);\n  }\n\n}\n",
  "sourcePath": "/Users/dmosites/Projects/airswap-protocols/protocols/indexer/contracts/Indexer.sol",
  "compiler": {
    "name": "solc",
    "version": "0.5.12+commit.7709ece9.Emscripten.clang"
  },
  "schemaVersion": "3.0.11",
  "updatedAt": "2019-10-27T18:41:12.227Z",
  "devdoc": {
    "methods": {
      "addToBlacklist(address)": {
        "params": {
          "_token": "address Token to blacklist"
        }
      },
      "constructor": {
        "params": {
          "_stakingToken": "address"
        }
      },
      "createIndex(address,address)": {
        "details": "Deploys a new Index contract and stores the address",
        "params": {
          "_senderToken": "address Sender token for the Index",
          "_signerToken": "address Signer token for the Index"
        }
      },
      "getLocators(address,address,address,uint256)": {
        "details": "Users are allowed unstake from blacklisted indexes",
        "params": {
          "_count": "uint256 Total number of locators to return",
          "_senderToken": "address Sender token of the trading pair",
          "_signerToken": "address Signer token of the trading pair",
          "_startAddress": "address Address to start from"
        },
        "return": "locators bytes32[]"
      },
      "getStakedAmount(address,address,address)": {
        "params": {
          "_senderToken": "address Sender token the user staked on",
          "_signerToken": "address Signer token the user staked on",
          "_user": "address User who staked"
        },
        "return": "uint256 Amount the user staked"
      },
      "isOwner()": {
        "details": "Returns true if the caller is the current owner."
      },
      "killContract(address)": {
        "details": "Only callable by owner and when contractPaused",
        "params": {
          "_recipient": "address Recipient of any money in the contract"
        }
      },
      "owner()": {
        "details": "Returns the address of the current owner."
      },
      "removeFromBlacklist(address)": {
        "params": {
          "_token": "address Token to remove from the blacklist"
        }
      },
      "renounceOwnership()": {
        "details": "Leaves the contract without owner. It will not be possible to call `onlyOwner` functions anymore. Can only be called by the current owner.     * > Note: Renouncing ownership will leave the contract without an owner, thereby removing any functionality that is only available to the owner."
      },
      "setIntent(address,address,uint256,bytes32)": {
        "details": "Requires approval to transfer staking token for sender",
        "params": {
          "_amount": "uint256 Amount being staked",
          "_locator": "bytes32 Locator of the staker",
          "_senderToken": "address Sender token of the Index being staked",
          "_signerToken": "address Signer token of the Index being staked"
        }
      },
      "setLocatorWhitelist(address)": {
        "details": "Clear the whitelist with a null address (0x0)",
        "params": {
          "_locatorWhitelist": "address Locator whitelist"
        }
      },
      "setPausedStatus(bool)": {
        "details": "Only callable by owner",
        "params": {
          "_newStatus": "bool New status of contractPaused"
        }
      },
      "transferOwnership(address)": {
        "details": "Transfers ownership of the contract to a new account (`newOwner`). Can only be called by the current owner."
      },
      "unsetIntent(address,address)": {
        "details": "Users are allowed unstake from blacklisted indexes",
        "params": {
          "_senderToken": "address Sender token of the Index being staked",
          "_signerToken": "address Signer token of the Index being unstaked"
        }
      },
      "unsetIntentForUser(address,address,address)": {
        "details": "Only callable by ownerThis can be used when contractPaused to return staked tokens to users",
        "params": {
          "_senderToken": "address Signer token of the Index being unstaked",
          "_signerToken": "address Signer token of the Index being unstaked",
          "_user": "address"
        }
      }
    },
    "title": "Indexer: A Collection of Index contracts by Token Pair"
  },
  "userdoc": {
    "methods": {
      "addToBlacklist(address)": {
        "notice": "Add a Token to the Blacklist"
      },
      "constructor": "Contract Constructor",
      "createIndex(address,address)": {
        "notice": "Create an Index (List of Locators for a Token Pair)"
      },
      "getLocators(address,address,address,uint256)": {
        "notice": "Get the locators of those trading a token pair"
      },
      "getStakedAmount(address,address,address)": {
        "notice": "Gets the Stake Amount for a User"
      },
      "killContract(address)": {
        "notice": "Destroy the Contract"
      },
      "removeFromBlacklist(address)": {
        "notice": "Remove a Token from the Blacklist"
      },
      "setIntent(address,address,uint256,bytes32)": {
        "notice": "Set an Intent to Trade"
      },
      "setLocatorWhitelist(address)": {
        "notice": "Set the address of an ILocatorWhitelist to use"
      },
      "setPausedStatus(bool)": {
        "notice": "Set whether the contract is paused"
      },
      "unsetIntent(address,address)": {
        "notice": "Unset an Intent to Trade"
      },
      "unsetIntentForUser(address,address,address)": {
        "notice": "Unset Intent for a User"
      }
    }
  }
}